{
	"contracts/transfermultiaccount.sol": {
		"TransferTokenToMultipleAccounts": {
			"abi": [
				{
					"inputs": [
						{
							"internalType": "address",
							"name": "tokenAddress",
							"type": "address"
						},
						{
							"internalType": "address",
							"name": "spender",
							"type": "address"
						},
						{
							"internalType": "uint256",
							"name": "amount",
							"type": "uint256"
						}
					],
					"name": "approveToken",
					"outputs": [],
					"stateMutability": "nonpayable",
					"type": "function"
				},
				{
					"inputs": [
						{
							"internalType": "address",
							"name": "tokenAddress",
							"type": "address"
						},
						{
							"internalType": "address[]",
							"name": "recipients",
							"type": "address[]"
						},
						{
							"internalType": "uint256[]",
							"name": "amounts",
							"type": "uint256[]"
						}
					],
					"name": "transferTokenToMultipleAccounts",
					"outputs": [],
					"stateMutability": "nonpayable",
					"type": "function"
				}
			],
			"devdoc": {
				"kind": "dev",
				"methods": {},
				"version": 1
			},
			"evm": {
				"assembly": "    /* \"contracts/transfermultiaccount.sol\":260:1066  contract TransferTokenToMultipleAccounts {... */\n  mstore(0x40, 0x80)\n  callvalue\n  dup1\n  iszero\n  tag_1\n  jumpi\n  0x00\n  dup1\n  revert\ntag_1:\n  pop\n  dataSize(sub_0)\n  dup1\n  dataOffset(sub_0)\n  0x00\n  codecopy\n  0x00\n  return\nstop\n\nsub_0: assembly {\n        /* \"contracts/transfermultiaccount.sol\":260:1066  contract TransferTokenToMultipleAccounts {... */\n      mstore(0x40, 0x80)\n      callvalue\n      dup1\n      iszero\n      tag_1\n      jumpi\n      0x00\n      dup1\n      revert\n    tag_1:\n      pop\n      jumpi(tag_2, lt(calldatasize, 0x04))\n      shr(0xe0, calldataload(0x00))\n      dup1\n      0xa00a4ef1\n      eq\n      tag_3\n      jumpi\n      dup1\n      0xda3e3397\n      eq\n      tag_4\n      jumpi\n    tag_2:\n      0x00\n      dup1\n      revert\n        /* \"contracts/transfermultiaccount.sol\":588:1064  function transferTokenToMultipleAccounts(... */\n    tag_3:\n      tag_5\n      0x04\n      dup1\n      calldatasize\n      sub\n      dup2\n      add\n      swap1\n      tag_6\n      swap2\n      swap1\n      tag_7\n      jump\t// in\n    tag_6:\n      tag_8\n      jump\t// in\n    tag_5:\n      stop\n        /* \"contracts/transfermultiaccount.sol\":307:582  function approveToken(... */\n    tag_4:\n      tag_9\n      0x04\n      dup1\n      calldatasize\n      sub\n      dup2\n      add\n      swap1\n      tag_10\n      swap2\n      swap1\n      tag_11\n      jump\t// in\n    tag_10:\n      tag_12\n      jump\t// in\n    tag_9:\n      stop\n        /* \"contracts/transfermultiaccount.sol\":588:1064  function transferTokenToMultipleAccounts(... */\n    tag_8:\n        /* \"contracts/transfermultiaccount.sol\":788:795  amounts */\n      dup2\n      dup2\n        /* \"contracts/transfermultiaccount.sol\":788:802  amounts.length */\n      swap1\n      pop\n        /* \"contracts/transfermultiaccount.sol\":767:777  recipients */\n      dup5\n      dup5\n        /* \"contracts/transfermultiaccount.sol\":767:784  recipients.length */\n      swap1\n      pop\n        /* \"contracts/transfermultiaccount.sol\":767:802  recipients.length == amounts.length */\n      eq\n        /* \"contracts/transfermultiaccount.sol\":759:843  require(recipients.length == amounts.length, \"Recipients and amounts do not match.\") */\n      tag_14\n      jumpi\n      mload(0x40)\n      0x08c379a000000000000000000000000000000000000000000000000000000000\n      dup2\n      mstore\n      0x04\n      add\n      tag_15\n      swap1\n      tag_16\n      jump\t// in\n    tag_15:\n      mload(0x40)\n      dup1\n      swap2\n      sub\n      swap1\n      revert\n    tag_14:\n        /* \"contracts/transfermultiaccount.sol\":853:865  IERC20 token */\n      0x00\n        /* \"contracts/transfermultiaccount.sol\":875:887  tokenAddress */\n      dup6\n        /* \"contracts/transfermultiaccount.sol\":853:888  IERC20 token = IERC20(tokenAddress) */\n      swap1\n      pop\n        /* \"contracts/transfermultiaccount.sol\":904:913  uint256 i */\n      0x00\n        /* \"contracts/transfermultiaccount.sol\":899:1058  for (uint256 i = 0; i < recipients.length; i++) {... */\n    tag_17:\n        /* \"contracts/transfermultiaccount.sol\":923:933  recipients */\n      dup6\n      dup6\n        /* \"contracts/transfermultiaccount.sol\":923:940  recipients.length */\n      swap1\n      pop\n        /* \"contracts/transfermultiaccount.sol\":919:920  i */\n      dup2\n        /* \"contracts/transfermultiaccount.sol\":919:940  i < recipients.length */\n      lt\n        /* \"contracts/transfermultiaccount.sol\":899:1058  for (uint256 i = 0; i < recipients.length; i++) {... */\n      iszero\n      tag_18\n      jumpi\n        /* \"contracts/transfermultiaccount.sol\":969:974  token */\n      dup2\n        /* \"contracts/transfermultiaccount.sol\":969:987  token.transferFrom */\n      0xffffffffffffffffffffffffffffffffffffffff\n      and\n      0x23b872dd\n        /* \"contracts/transfermultiaccount.sol\":988:998  msg.sender */\n      caller\n        /* \"contracts/transfermultiaccount.sol\":1000:1010  recipients */\n      dup9\n      dup9\n        /* \"contracts/transfermultiaccount.sol\":1011:1012  i */\n      dup6\n        /* \"contracts/transfermultiaccount.sol\":1000:1013  recipients[i] */\n      dup2\n      dup2\n      lt\n      tag_20\n      jumpi\n      mstore(0x00, 0x4e487b7100000000000000000000000000000000000000000000000000000000)\n      mstore(0x04, 0x32)\n      revert(0x00, 0x24)\n    tag_20:\n      swap1\n      pop\n      0x20\n      mul\n      add\n      0x20\n      dup2\n      add\n      swap1\n      tag_21\n      swap2\n      swap1\n      tag_22\n      jump\t// in\n    tag_21:\n        /* \"contracts/transfermultiaccount.sol\":1015:1022  amounts */\n      dup8\n      dup8\n        /* \"contracts/transfermultiaccount.sol\":1023:1024  i */\n      dup7\n        /* \"contracts/transfermultiaccount.sol\":1015:1025  amounts[i] */\n      dup2\n      dup2\n      lt\n      tag_23\n      jumpi\n      mstore(0x00, 0x4e487b7100000000000000000000000000000000000000000000000000000000)\n      mstore(0x04, 0x32)\n      revert(0x00, 0x24)\n    tag_23:\n      swap1\n      pop\n      0x20\n      mul\n      add\n      calldataload\n        /* \"contracts/transfermultiaccount.sol\":969:1026  token.transferFrom(msg.sender, recipients[i], amounts[i]) */\n      mload(0x40)\n      dup5\n      0xffffffff\n      and\n      0xe0\n      shl\n      dup2\n      mstore\n      0x04\n      add\n      tag_24\n      swap4\n      swap3\n      swap2\n      swap1\n      tag_25\n      jump\t// in\n    tag_24:\n      0x20\n      mload(0x40)\n      dup1\n      dup4\n      sub\n      dup2\n      0x00\n      dup8\n      dup1\n      extcodesize\n      iszero\n      dup1\n      iszero\n      tag_26\n      jumpi\n      0x00\n      dup1\n      revert\n    tag_26:\n      pop\n      gas\n      call\n      iszero\n      dup1\n      iszero\n      tag_28\n      jumpi\n      returndatasize\n      0x00\n      dup1\n      returndatacopy\n      revert(0x00, returndatasize)\n    tag_28:\n      pop\n      pop\n      pop\n      pop\n      mload(0x40)\n      returndatasize\n      not(0x1f)\n      0x1f\n      dup3\n      add\n      and\n      dup3\n      add\n      dup1\n      0x40\n      mstore\n      pop\n      dup2\n      add\n      swap1\n      tag_29\n      swap2\n      swap1\n      tag_30\n      jump\t// in\n    tag_29:\n        /* \"contracts/transfermultiaccount.sol\":961:1047  require(token.transferFrom(msg.sender, recipients[i], amounts[i]), \"Transfer failed.\") */\n      tag_31\n      jumpi\n      mload(0x40)\n      0x08c379a000000000000000000000000000000000000000000000000000000000\n      dup2\n      mstore\n      0x04\n      add\n      tag_32\n      swap1\n      tag_33\n      jump\t// in\n    tag_32:\n      mload(0x40)\n      dup1\n      swap2\n      sub\n      swap1\n      revert\n    tag_31:\n        /* \"contracts/transfermultiaccount.sol\":942:945  i++ */\n      dup1\n      dup1\n      tag_34\n      swap1\n      tag_35\n      jump\t// in\n    tag_34:\n      swap2\n      pop\n      pop\n        /* \"contracts/transfermultiaccount.sol\":899:1058  for (uint256 i = 0; i < recipients.length; i++) {... */\n      jump(tag_17)\n    tag_18:\n      pop\n        /* \"contracts/transfermultiaccount.sol\":588:1064  function transferTokenToMultipleAccounts(... */\n      pop\n      pop\n      pop\n      pop\n      pop\n      pop\n      jump\t// out\n        /* \"contracts/transfermultiaccount.sol\":307:582  function approveToken(... */\n    tag_12:\n        /* \"contracts/transfermultiaccount.sol\":433:445  IERC20 token */\n      0x00\n        /* \"contracts/transfermultiaccount.sol\":455:467  tokenAddress */\n      dup4\n        /* \"contracts/transfermultiaccount.sol\":433:468  IERC20 token = IERC20(tokenAddress) */\n      swap1\n      pop\n        /* \"contracts/transfermultiaccount.sol\":478:490  bool success */\n      0x00\n        /* \"contracts/transfermultiaccount.sol\":493:498  token */\n      dup2\n        /* \"contracts/transfermultiaccount.sol\":493:506  token.approve */\n      0xffffffffffffffffffffffffffffffffffffffff\n      and\n      0x095ea7b3\n        /* \"contracts/transfermultiaccount.sol\":507:514  spender */\n      dup6\n        /* \"contracts/transfermultiaccount.sol\":516:522  amount */\n      dup6\n        /* \"contracts/transfermultiaccount.sol\":493:523  token.approve(spender, amount) */\n      mload(0x40)\n      dup4\n      0xffffffff\n      and\n      0xe0\n      shl\n      dup2\n      mstore\n      0x04\n      add\n      tag_37\n      swap3\n      swap2\n      swap1\n      tag_38\n      jump\t// in\n    tag_37:\n      0x20\n      mload(0x40)\n      dup1\n      dup4\n      sub\n      dup2\n      0x00\n      dup8\n      dup1\n      extcodesize\n      iszero\n      dup1\n      iszero\n      tag_39\n      jumpi\n      0x00\n      dup1\n      revert\n    tag_39:\n      pop\n      gas\n      call\n      iszero\n      dup1\n      iszero\n      tag_41\n      jumpi\n      returndatasize\n      0x00\n      dup1\n      returndatacopy\n      revert(0x00, returndatasize)\n    tag_41:\n      pop\n      pop\n      pop\n      pop\n      mload(0x40)\n      returndatasize\n      not(0x1f)\n      0x1f\n      dup3\n      add\n      and\n      dup3\n      add\n      dup1\n      0x40\n      mstore\n      pop\n      dup2\n      add\n      swap1\n      tag_42\n      swap2\n      swap1\n      tag_30\n      jump\t// in\n    tag_42:\n        /* \"contracts/transfermultiaccount.sol\":478:523  bool success = token.approve(spender, amount) */\n      swap1\n      pop\n        /* \"contracts/transfermultiaccount.sol\":541:548  success */\n      dup1\n        /* \"contracts/transfermultiaccount.sol\":533:575  require(success, \"Token approval failed.\") */\n      tag_43\n      jumpi\n      mload(0x40)\n      0x08c379a000000000000000000000000000000000000000000000000000000000\n      dup2\n      mstore\n      0x04\n      add\n      tag_44\n      swap1\n      tag_45\n      jump\t// in\n    tag_44:\n      mload(0x40)\n      dup1\n      swap2\n      sub\n      swap1\n      revert\n    tag_43:\n        /* \"contracts/transfermultiaccount.sol\":307:582  function approveToken(... */\n      pop\n      pop\n      pop\n      pop\n      pop\n      jump\t// out\n        /* \"#utility.yul\":7:146   */\n    tag_47:\n      0x00\n        /* \"#utility.yul\":91:97   */\n      dup2\n        /* \"#utility.yul\":78:98   */\n      calldataload\n        /* \"#utility.yul\":69:98   */\n      swap1\n      pop\n        /* \"#utility.yul\":107:140   */\n      tag_49\n        /* \"#utility.yul\":134:139   */\n      dup2\n        /* \"#utility.yul\":107:140   */\n      tag_50\n      jump\t// in\n    tag_49:\n        /* \"#utility.yul\":59:146   */\n      swap3\n      swap2\n      pop\n      pop\n      jump\t// out\n        /* \"#utility.yul\":169:536   */\n    tag_51:\n      0x00\n      dup1\n        /* \"#utility.yul\":302:305   */\n      dup4\n        /* \"#utility.yul\":295:299   */\n      0x1f\n        /* \"#utility.yul\":287:293   */\n      dup5\n        /* \"#utility.yul\":283:300   */\n      add\n        /* \"#utility.yul\":279:306   */\n      slt\n        /* \"#utility.yul\":269:271   */\n      tag_53\n      jumpi\n        /* \"#utility.yul\":320:321   */\n      0x00\n        /* \"#utility.yul\":317:318   */\n      dup1\n        /* \"#utility.yul\":310:322   */\n      revert\n        /* \"#utility.yul\":269:271   */\n    tag_53:\n        /* \"#utility.yul\":356:362   */\n      dup3\n        /* \"#utility.yul\":343:363   */\n      calldataload\n        /* \"#utility.yul\":333:363   */\n      swap1\n      pop\n        /* \"#utility.yul\":386:404   */\n      0xffffffffffffffff\n        /* \"#utility.yul\":378:384   */\n      dup2\n        /* \"#utility.yul\":375:405   */\n      gt\n        /* \"#utility.yul\":372:374   */\n      iszero\n      tag_54\n      jumpi\n        /* \"#utility.yul\":418:419   */\n      0x00\n        /* \"#utility.yul\":415:416   */\n      dup1\n        /* \"#utility.yul\":408:420   */\n      revert\n        /* \"#utility.yul\":372:374   */\n    tag_54:\n        /* \"#utility.yul\":455:459   */\n      0x20\n        /* \"#utility.yul\":447:453   */\n      dup4\n        /* \"#utility.yul\":443:460   */\n      add\n        /* \"#utility.yul\":431:460   */\n      swap2\n      pop\n        /* \"#utility.yul\":509:512   */\n      dup4\n        /* \"#utility.yul\":501:505   */\n      0x20\n        /* \"#utility.yul\":493:499   */\n      dup3\n        /* \"#utility.yul\":489:506   */\n      mul\n        /* \"#utility.yul\":479:487   */\n      dup4\n        /* \"#utility.yul\":475:507   */\n      add\n        /* \"#utility.yul\":472:513   */\n      gt\n        /* \"#utility.yul\":469:471   */\n      iszero\n      tag_55\n      jumpi\n        /* \"#utility.yul\":526:527   */\n      0x00\n        /* \"#utility.yul\":523:524   */\n      dup1\n        /* \"#utility.yul\":516:528   */\n      revert\n        /* \"#utility.yul\":469:471   */\n    tag_55:\n        /* \"#utility.yul\":259:536   */\n      swap3\n      pop\n      swap3\n      swap1\n      pop\n      jump\t// out\n        /* \"#utility.yul\":559:926   */\n    tag_56:\n      0x00\n      dup1\n        /* \"#utility.yul\":692:695   */\n      dup4\n        /* \"#utility.yul\":685:689   */\n      0x1f\n        /* \"#utility.yul\":677:683   */\n      dup5\n        /* \"#utility.yul\":673:690   */\n      add\n        /* \"#utility.yul\":669:696   */\n      slt\n        /* \"#utility.yul\":659:661   */\n      tag_58\n      jumpi\n        /* \"#utility.yul\":710:711   */\n      0x00\n        /* \"#utility.yul\":707:708   */\n      dup1\n        /* \"#utility.yul\":700:712   */\n      revert\n        /* \"#utility.yul\":659:661   */\n    tag_58:\n        /* \"#utility.yul\":746:752   */\n      dup3\n        /* \"#utility.yul\":733:753   */\n      calldataload\n        /* \"#utility.yul\":723:753   */\n      swap1\n      pop\n        /* \"#utility.yul\":776:794   */\n      0xffffffffffffffff\n        /* \"#utility.yul\":768:774   */\n      dup2\n        /* \"#utility.yul\":765:795   */\n      gt\n        /* \"#utility.yul\":762:764   */\n      iszero\n      tag_59\n      jumpi\n        /* \"#utility.yul\":808:809   */\n      0x00\n        /* \"#utility.yul\":805:806   */\n      dup1\n        /* \"#utility.yul\":798:810   */\n      revert\n        /* \"#utility.yul\":762:764   */\n    tag_59:\n        /* \"#utility.yul\":845:849   */\n      0x20\n        /* \"#utility.yul\":837:843   */\n      dup4\n        /* \"#utility.yul\":833:850   */\n      add\n        /* \"#utility.yul\":821:850   */\n      swap2\n      pop\n        /* \"#utility.yul\":899:902   */\n      dup4\n        /* \"#utility.yul\":891:895   */\n      0x20\n        /* \"#utility.yul\":883:889   */\n      dup3\n        /* \"#utility.yul\":879:896   */\n      mul\n        /* \"#utility.yul\":869:877   */\n      dup4\n        /* \"#utility.yul\":865:897   */\n      add\n        /* \"#utility.yul\":862:903   */\n      gt\n        /* \"#utility.yul\":859:861   */\n      iszero\n      tag_60\n      jumpi\n        /* \"#utility.yul\":916:917   */\n      0x00\n        /* \"#utility.yul\":913:914   */\n      dup1\n        /* \"#utility.yul\":906:918   */\n      revert\n        /* \"#utility.yul\":859:861   */\n    tag_60:\n        /* \"#utility.yul\":649:926   */\n      swap3\n      pop\n      swap3\n      swap1\n      pop\n      jump\t// out\n        /* \"#utility.yul\":932:1069   */\n    tag_61:\n      0x00\n        /* \"#utility.yul\":1017:1023   */\n      dup2\n        /* \"#utility.yul\":1011:1024   */\n      mload\n        /* \"#utility.yul\":1002:1024   */\n      swap1\n      pop\n        /* \"#utility.yul\":1033:1063   */\n      tag_63\n        /* \"#utility.yul\":1057:1062   */\n      dup2\n        /* \"#utility.yul\":1033:1063   */\n      tag_64\n      jump\t// in\n    tag_63:\n        /* \"#utility.yul\":992:1069   */\n      swap3\n      swap2\n      pop\n      pop\n      jump\t// out\n        /* \"#utility.yul\":1075:1214   */\n    tag_65:\n      0x00\n        /* \"#utility.yul\":1159:1165   */\n      dup2\n        /* \"#utility.yul\":1146:1166   */\n      calldataload\n        /* \"#utility.yul\":1137:1166   */\n      swap1\n      pop\n        /* \"#utility.yul\":1175:1208   */\n      tag_67\n        /* \"#utility.yul\":1202:1207   */\n      dup2\n        /* \"#utility.yul\":1175:1208   */\n      tag_68\n      jump\t// in\n    tag_67:\n        /* \"#utility.yul\":1127:1214   */\n      swap3\n      swap2\n      pop\n      pop\n      jump\t// out\n        /* \"#utility.yul\":1220:1482   */\n    tag_22:\n      0x00\n        /* \"#utility.yul\":1328:1330   */\n      0x20\n        /* \"#utility.yul\":1316:1325   */\n      dup3\n        /* \"#utility.yul\":1307:1314   */\n      dup5\n        /* \"#utility.yul\":1303:1326   */\n      sub\n        /* \"#utility.yul\":1299:1331   */\n      slt\n        /* \"#utility.yul\":1296:1298   */\n      iszero\n      tag_70\n      jumpi\n        /* \"#utility.yul\":1344:1345   */\n      0x00\n        /* \"#utility.yul\":1341:1342   */\n      dup1\n        /* \"#utility.yul\":1334:1346   */\n      revert\n        /* \"#utility.yul\":1296:1298   */\n    tag_70:\n        /* \"#utility.yul\":1387:1388   */\n      0x00\n        /* \"#utility.yul\":1412:1465   */\n      tag_71\n        /* \"#utility.yul\":1457:1464   */\n      dup5\n        /* \"#utility.yul\":1448:1454   */\n      dup3\n        /* \"#utility.yul\":1437:1446   */\n      dup6\n        /* \"#utility.yul\":1433:1455   */\n      add\n        /* \"#utility.yul\":1412:1465   */\n      tag_47\n      jump\t// in\n    tag_71:\n        /* \"#utility.yul\":1402:1465   */\n      swap2\n      pop\n        /* \"#utility.yul\":1358:1475   */\n      pop\n        /* \"#utility.yul\":1286:1482   */\n      swap3\n      swap2\n      pop\n      pop\n      jump\t// out\n        /* \"#utility.yul\":1488:2040   */\n    tag_11:\n      0x00\n      dup1\n      0x00\n        /* \"#utility.yul\":1630:1632   */\n      0x60\n        /* \"#utility.yul\":1618:1627   */\n      dup5\n        /* \"#utility.yul\":1609:1616   */\n      dup7\n        /* \"#utility.yul\":1605:1628   */\n      sub\n        /* \"#utility.yul\":1601:1633   */\n      slt\n        /* \"#utility.yul\":1598:1600   */\n      iszero\n      tag_73\n      jumpi\n        /* \"#utility.yul\":1646:1647   */\n      0x00\n        /* \"#utility.yul\":1643:1644   */\n      dup1\n        /* \"#utility.yul\":1636:1648   */\n      revert\n        /* \"#utility.yul\":1598:1600   */\n    tag_73:\n        /* \"#utility.yul\":1689:1690   */\n      0x00\n        /* \"#utility.yul\":1714:1767   */\n      tag_74\n        /* \"#utility.yul\":1759:1766   */\n      dup7\n        /* \"#utility.yul\":1750:1756   */\n      dup3\n        /* \"#utility.yul\":1739:1748   */\n      dup8\n        /* \"#utility.yul\":1735:1757   */\n      add\n        /* \"#utility.yul\":1714:1767   */\n      tag_47\n      jump\t// in\n    tag_74:\n        /* \"#utility.yul\":1704:1767   */\n      swap4\n      pop\n        /* \"#utility.yul\":1660:1777   */\n      pop\n        /* \"#utility.yul\":1816:1818   */\n      0x20\n        /* \"#utility.yul\":1842:1895   */\n      tag_75\n        /* \"#utility.yul\":1887:1894   */\n      dup7\n        /* \"#utility.yul\":1878:1884   */\n      dup3\n        /* \"#utility.yul\":1867:1876   */\n      dup8\n        /* \"#utility.yul\":1863:1885   */\n      add\n        /* \"#utility.yul\":1842:1895   */\n      tag_47\n      jump\t// in\n    tag_75:\n        /* \"#utility.yul\":1832:1895   */\n      swap3\n      pop\n        /* \"#utility.yul\":1787:1905   */\n      pop\n        /* \"#utility.yul\":1944:1946   */\n      0x40\n        /* \"#utility.yul\":1970:2023   */\n      tag_76\n        /* \"#utility.yul\":2015:2022   */\n      dup7\n        /* \"#utility.yul\":2006:2012   */\n      dup3\n        /* \"#utility.yul\":1995:2004   */\n      dup8\n        /* \"#utility.yul\":1991:2013   */\n      add\n        /* \"#utility.yul\":1970:2023   */\n      tag_65\n      jump\t// in\n    tag_76:\n        /* \"#utility.yul\":1960:2023   */\n      swap2\n      pop\n        /* \"#utility.yul\":1915:2033   */\n      pop\n        /* \"#utility.yul\":1588:2040   */\n      swap3\n      pop\n      swap3\n      pop\n      swap3\n      jump\t// out\n        /* \"#utility.yul\":2046:2924   */\n    tag_7:\n      0x00\n      dup1\n      0x00\n      dup1\n      0x00\n        /* \"#utility.yul\":2258:2260   */\n      0x60\n        /* \"#utility.yul\":2246:2255   */\n      dup7\n        /* \"#utility.yul\":2237:2244   */\n      dup9\n        /* \"#utility.yul\":2233:2256   */\n      sub\n        /* \"#utility.yul\":2229:2261   */\n      slt\n        /* \"#utility.yul\":2226:2228   */\n      iszero\n      tag_78\n      jumpi\n        /* \"#utility.yul\":2274:2275   */\n      0x00\n        /* \"#utility.yul\":2271:2272   */\n      dup1\n        /* \"#utility.yul\":2264:2276   */\n      revert\n        /* \"#utility.yul\":2226:2228   */\n    tag_78:\n        /* \"#utility.yul\":2317:2318   */\n      0x00\n        /* \"#utility.yul\":2342:2395   */\n      tag_79\n        /* \"#utility.yul\":2387:2394   */\n      dup9\n        /* \"#utility.yul\":2378:2384   */\n      dup3\n        /* \"#utility.yul\":2367:2376   */\n      dup10\n        /* \"#utility.yul\":2363:2385   */\n      add\n        /* \"#utility.yul\":2342:2395   */\n      tag_47\n      jump\t// in\n    tag_79:\n        /* \"#utility.yul\":2332:2395   */\n      swap6\n      pop\n        /* \"#utility.yul\":2288:2405   */\n      pop\n        /* \"#utility.yul\":2472:2474   */\n      0x20\n        /* \"#utility.yul\":2461:2470   */\n      dup7\n        /* \"#utility.yul\":2457:2475   */\n      add\n        /* \"#utility.yul\":2444:2476   */\n      calldataload\n        /* \"#utility.yul\":2503:2521   */\n      0xffffffffffffffff\n        /* \"#utility.yul\":2495:2501   */\n      dup2\n        /* \"#utility.yul\":2492:2522   */\n      gt\n        /* \"#utility.yul\":2489:2491   */\n      iszero\n      tag_80\n      jumpi\n        /* \"#utility.yul\":2535:2536   */\n      0x00\n        /* \"#utility.yul\":2532:2533   */\n      dup1\n        /* \"#utility.yul\":2525:2537   */\n      revert\n        /* \"#utility.yul\":2489:2491   */\n    tag_80:\n        /* \"#utility.yul\":2571:2651   */\n      tag_81\n        /* \"#utility.yul\":2643:2650   */\n      dup9\n        /* \"#utility.yul\":2634:2640   */\n      dup3\n        /* \"#utility.yul\":2623:2632   */\n      dup10\n        /* \"#utility.yul\":2619:2641   */\n      add\n        /* \"#utility.yul\":2571:2651   */\n      tag_51\n      jump\t// in\n    tag_81:\n        /* \"#utility.yul\":2553:2651   */\n      swap5\n      pop\n      swap5\n      pop\n        /* \"#utility.yul\":2415:2661   */\n      pop\n        /* \"#utility.yul\":2728:2730   */\n      0x40\n        /* \"#utility.yul\":2717:2726   */\n      dup7\n        /* \"#utility.yul\":2713:2731   */\n      add\n        /* \"#utility.yul\":2700:2732   */\n      calldataload\n        /* \"#utility.yul\":2759:2777   */\n      0xffffffffffffffff\n        /* \"#utility.yul\":2751:2757   */\n      dup2\n        /* \"#utility.yul\":2748:2778   */\n      gt\n        /* \"#utility.yul\":2745:2747   */\n      iszero\n      tag_82\n      jumpi\n        /* \"#utility.yul\":2791:2792   */\n      0x00\n        /* \"#utility.yul\":2788:2789   */\n      dup1\n        /* \"#utility.yul\":2781:2793   */\n      revert\n        /* \"#utility.yul\":2745:2747   */\n    tag_82:\n        /* \"#utility.yul\":2827:2907   */\n      tag_83\n        /* \"#utility.yul\":2899:2906   */\n      dup9\n        /* \"#utility.yul\":2890:2896   */\n      dup3\n        /* \"#utility.yul\":2879:2888   */\n      dup10\n        /* \"#utility.yul\":2875:2897   */\n      add\n        /* \"#utility.yul\":2827:2907   */\n      tag_56\n      jump\t// in\n    tag_83:\n        /* \"#utility.yul\":2809:2907   */\n      swap3\n      pop\n      swap3\n      pop\n        /* \"#utility.yul\":2671:2917   */\n      pop\n        /* \"#utility.yul\":2216:2924   */\n      swap3\n      swap6\n      pop\n      swap3\n      swap6\n      swap1\n      swap4\n      pop\n      jump\t// out\n        /* \"#utility.yul\":2930:3208   */\n    tag_30:\n      0x00\n        /* \"#utility.yul\":3046:3048   */\n      0x20\n        /* \"#utility.yul\":3034:3043   */\n      dup3\n        /* \"#utility.yul\":3025:3032   */\n      dup5\n        /* \"#utility.yul\":3021:3044   */\n      sub\n        /* \"#utility.yul\":3017:3049   */\n      slt\n        /* \"#utility.yul\":3014:3016   */\n      iszero\n      tag_85\n      jumpi\n        /* \"#utility.yul\":3062:3063   */\n      0x00\n        /* \"#utility.yul\":3059:3060   */\n      dup1\n        /* \"#utility.yul\":3052:3064   */\n      revert\n        /* \"#utility.yul\":3014:3016   */\n    tag_85:\n        /* \"#utility.yul\":3105:3106   */\n      0x00\n        /* \"#utility.yul\":3130:3191   */\n      tag_86\n        /* \"#utility.yul\":3183:3190   */\n      dup5\n        /* \"#utility.yul\":3174:3180   */\n      dup3\n        /* \"#utility.yul\":3163:3172   */\n      dup6\n        /* \"#utility.yul\":3159:3181   */\n      add\n        /* \"#utility.yul\":3130:3191   */\n      tag_61\n      jump\t// in\n    tag_86:\n        /* \"#utility.yul\":3120:3191   */\n      swap2\n      pop\n        /* \"#utility.yul\":3076:3201   */\n      pop\n        /* \"#utility.yul\":3004:3208   */\n      swap3\n      swap2\n      pop\n      pop\n      jump\t// out\n        /* \"#utility.yul\":3214:3332   */\n    tag_87:\n        /* \"#utility.yul\":3301:3325   */\n      tag_89\n        /* \"#utility.yul\":3319:3324   */\n      dup2\n        /* \"#utility.yul\":3301:3325   */\n      tag_90\n      jump\t// in\n    tag_89:\n        /* \"#utility.yul\":3296:3299   */\n      dup3\n        /* \"#utility.yul\":3289:3326   */\n      mstore\n        /* \"#utility.yul\":3279:3332   */\n      pop\n      pop\n      jump\t// out\n        /* \"#utility.yul\":3338:3658   */\n    tag_91:\n      0x00\n        /* \"#utility.yul\":3501:3568   */\n      tag_93\n        /* \"#utility.yul\":3565:3567   */\n      0x16\n        /* \"#utility.yul\":3560:3563   */\n      dup4\n        /* \"#utility.yul\":3501:3568   */\n      tag_94\n      jump\t// in\n    tag_93:\n        /* \"#utility.yul\":3494:3568   */\n      swap2\n      pop\n        /* \"#utility.yul\":3598:3622   */\n      0x546f6b656e20617070726f76616c206661696c65642e00000000000000000000\n        /* \"#utility.yul\":3594:3595   */\n      0x00\n        /* \"#utility.yul\":3589:3592   */\n      dup4\n        /* \"#utility.yul\":3585:3596   */\n      add\n        /* \"#utility.yul\":3578:3623   */\n      mstore\n        /* \"#utility.yul\":3649:3651   */\n      0x20\n        /* \"#utility.yul\":3644:3647   */\n      dup3\n        /* \"#utility.yul\":3640:3652   */\n      add\n        /* \"#utility.yul\":3633:3652   */\n      swap1\n      pop\n        /* \"#utility.yul\":3484:3658   */\n      swap2\n      swap1\n      pop\n      jump\t// out\n        /* \"#utility.yul\":3664:4032   */\n    tag_95:\n      0x00\n        /* \"#utility.yul\":3827:3894   */\n      tag_97\n        /* \"#utility.yul\":3891:3893   */\n      0x24\n        /* \"#utility.yul\":3886:3889   */\n      dup4\n        /* \"#utility.yul\":3827:3894   */\n      tag_94\n      jump\t// in\n    tag_97:\n        /* \"#utility.yul\":3820:3894   */\n      swap2\n      pop\n        /* \"#utility.yul\":3924:3958   */\n      0x526563697069656e747320616e6420616d6f756e747320646f206e6f74206d61\n        /* \"#utility.yul\":3920:3921   */\n      0x00\n        /* \"#utility.yul\":3915:3918   */\n      dup4\n        /* \"#utility.yul\":3911:3922   */\n      add\n        /* \"#utility.yul\":3904:3959   */\n      mstore\n        /* \"#utility.yul\":3990:3996   */\n      0x7463682e00000000000000000000000000000000000000000000000000000000\n        /* \"#utility.yul\":3985:3987   */\n      0x20\n        /* \"#utility.yul\":3980:3983   */\n      dup4\n        /* \"#utility.yul\":3976:3988   */\n      add\n        /* \"#utility.yul\":3969:3997   */\n      mstore\n        /* \"#utility.yul\":4023:4025   */\n      0x40\n        /* \"#utility.yul\":4018:4021   */\n      dup3\n        /* \"#utility.yul\":4014:4026   */\n      add\n        /* \"#utility.yul\":4007:4026   */\n      swap1\n      pop\n        /* \"#utility.yul\":3810:4032   */\n      swap2\n      swap1\n      pop\n      jump\t// out\n        /* \"#utility.yul\":4038:4352   */\n    tag_98:\n      0x00\n        /* \"#utility.yul\":4201:4268   */\n      tag_100\n        /* \"#utility.yul\":4265:4267   */\n      0x10\n        /* \"#utility.yul\":4260:4263   */\n      dup4\n        /* \"#utility.yul\":4201:4268   */\n      tag_94\n      jump\t// in\n    tag_100:\n        /* \"#utility.yul\":4194:4268   */\n      swap2\n      pop\n        /* \"#utility.yul\":4298:4316   */\n      0x5472616e73666572206661696c65642e00000000000000000000000000000000\n        /* \"#utility.yul\":4294:4295   */\n      0x00\n        /* \"#utility.yul\":4289:4292   */\n      dup4\n        /* \"#utility.yul\":4285:4296   */\n      add\n        /* \"#utility.yul\":4278:4317   */\n      mstore\n        /* \"#utility.yul\":4343:4345   */\n      0x20\n        /* \"#utility.yul\":4338:4341   */\n      dup3\n        /* \"#utility.yul\":4334:4346   */\n      add\n        /* \"#utility.yul\":4327:4346   */\n      swap1\n      pop\n        /* \"#utility.yul\":4184:4352   */\n      swap2\n      swap1\n      pop\n      jump\t// out\n        /* \"#utility.yul\":4358:4476   */\n    tag_101:\n        /* \"#utility.yul\":4445:4469   */\n      tag_103\n        /* \"#utility.yul\":4463:4468   */\n      dup2\n        /* \"#utility.yul\":4445:4469   */\n      tag_104\n      jump\t// in\n    tag_103:\n        /* \"#utility.yul\":4440:4443   */\n      dup3\n        /* \"#utility.yul\":4433:4470   */\n      mstore\n        /* \"#utility.yul\":4423:4476   */\n      pop\n      pop\n      jump\t// out\n        /* \"#utility.yul\":4482:4924   */\n    tag_25:\n      0x00\n        /* \"#utility.yul\":4669:4671   */\n      0x60\n        /* \"#utility.yul\":4658:4667   */\n      dup3\n        /* \"#utility.yul\":4654:4672   */\n      add\n        /* \"#utility.yul\":4646:4672   */\n      swap1\n      pop\n        /* \"#utility.yul\":4682:4753   */\n      tag_106\n        /* \"#utility.yul\":4750:4751   */\n      0x00\n        /* \"#utility.yul\":4739:4748   */\n      dup4\n        /* \"#utility.yul\":4735:4752   */\n      add\n        /* \"#utility.yul\":4726:4732   */\n      dup7\n        /* \"#utility.yul\":4682:4753   */\n      tag_87\n      jump\t// in\n    tag_106:\n        /* \"#utility.yul\":4763:4835   */\n      tag_107\n        /* \"#utility.yul\":4831:4833   */\n      0x20\n        /* \"#utility.yul\":4820:4829   */\n      dup4\n        /* \"#utility.yul\":4816:4834   */\n      add\n        /* \"#utility.yul\":4807:4813   */\n      dup6\n        /* \"#utility.yul\":4763:4835   */\n      tag_87\n      jump\t// in\n    tag_107:\n        /* \"#utility.yul\":4845:4917   */\n      tag_108\n        /* \"#utility.yul\":4913:4915   */\n      0x40\n        /* \"#utility.yul\":4902:4911   */\n      dup4\n        /* \"#utility.yul\":4898:4916   */\n      add\n        /* \"#utility.yul\":4889:4895   */\n      dup5\n        /* \"#utility.yul\":4845:4917   */\n      tag_101\n      jump\t// in\n    tag_108:\n        /* \"#utility.yul\":4636:4924   */\n      swap5\n      swap4\n      pop\n      pop\n      pop\n      pop\n      jump\t// out\n        /* \"#utility.yul\":4930:5262   */\n    tag_38:\n      0x00\n        /* \"#utility.yul\":5089:5091   */\n      0x40\n        /* \"#utility.yul\":5078:5087   */\n      dup3\n        /* \"#utility.yul\":5074:5092   */\n      add\n        /* \"#utility.yul\":5066:5092   */\n      swap1\n      pop\n        /* \"#utility.yul\":5102:5173   */\n      tag_110\n        /* \"#utility.yul\":5170:5171   */\n      0x00\n        /* \"#utility.yul\":5159:5168   */\n      dup4\n        /* \"#utility.yul\":5155:5172   */\n      add\n        /* \"#utility.yul\":5146:5152   */\n      dup6\n        /* \"#utility.yul\":5102:5173   */\n      tag_87\n      jump\t// in\n    tag_110:\n        /* \"#utility.yul\":5183:5255   */\n      tag_111\n        /* \"#utility.yul\":5251:5253   */\n      0x20\n        /* \"#utility.yul\":5240:5249   */\n      dup4\n        /* \"#utility.yul\":5236:5254   */\n      add\n        /* \"#utility.yul\":5227:5233   */\n      dup5\n        /* \"#utility.yul\":5183:5255   */\n      tag_101\n      jump\t// in\n    tag_111:\n        /* \"#utility.yul\":5056:5262   */\n      swap4\n      swap3\n      pop\n      pop\n      pop\n      jump\t// out\n        /* \"#utility.yul\":5268:5687   */\n    tag_45:\n      0x00\n        /* \"#utility.yul\":5472:5474   */\n      0x20\n        /* \"#utility.yul\":5461:5470   */\n      dup3\n        /* \"#utility.yul\":5457:5475   */\n      add\n        /* \"#utility.yul\":5449:5475   */\n      swap1\n      pop\n        /* \"#utility.yul\":5521:5530   */\n      dup2\n        /* \"#utility.yul\":5515:5519   */\n      dup2\n        /* \"#utility.yul\":5511:5531   */\n      sub\n        /* \"#utility.yul\":5507:5508   */\n      0x00\n        /* \"#utility.yul\":5496:5505   */\n      dup4\n        /* \"#utility.yul\":5492:5509   */\n      add\n        /* \"#utility.yul\":5485:5532   */\n      mstore\n        /* \"#utility.yul\":5549:5680   */\n      tag_113\n        /* \"#utility.yul\":5675:5679   */\n      dup2\n        /* \"#utility.yul\":5549:5680   */\n      tag_91\n      jump\t// in\n    tag_113:\n        /* \"#utility.yul\":5541:5680   */\n      swap1\n      pop\n        /* \"#utility.yul\":5439:5687   */\n      swap2\n      swap1\n      pop\n      jump\t// out\n        /* \"#utility.yul\":5693:6112   */\n    tag_16:\n      0x00\n        /* \"#utility.yul\":5897:5899   */\n      0x20\n        /* \"#utility.yul\":5886:5895   */\n      dup3\n        /* \"#utility.yul\":5882:5900   */\n      add\n        /* \"#utility.yul\":5874:5900   */\n      swap1\n      pop\n        /* \"#utility.yul\":5946:5955   */\n      dup2\n        /* \"#utility.yul\":5940:5944   */\n      dup2\n        /* \"#utility.yul\":5936:5956   */\n      sub\n        /* \"#utility.yul\":5932:5933   */\n      0x00\n        /* \"#utility.yul\":5921:5930   */\n      dup4\n        /* \"#utility.yul\":5917:5934   */\n      add\n        /* \"#utility.yul\":5910:5957   */\n      mstore\n        /* \"#utility.yul\":5974:6105   */\n      tag_115\n        /* \"#utility.yul\":6100:6104   */\n      dup2\n        /* \"#utility.yul\":5974:6105   */\n      tag_95\n      jump\t// in\n    tag_115:\n        /* \"#utility.yul\":5966:6105   */\n      swap1\n      pop\n        /* \"#utility.yul\":5864:6112   */\n      swap2\n      swap1\n      pop\n      jump\t// out\n        /* \"#utility.yul\":6118:6537   */\n    tag_33:\n      0x00\n        /* \"#utility.yul\":6322:6324   */\n      0x20\n        /* \"#utility.yul\":6311:6320   */\n      dup3\n        /* \"#utility.yul\":6307:6325   */\n      add\n        /* \"#utility.yul\":6299:6325   */\n      swap1\n      pop\n        /* \"#utility.yul\":6371:6380   */\n      dup2\n        /* \"#utility.yul\":6365:6369   */\n      dup2\n        /* \"#utility.yul\":6361:6381   */\n      sub\n        /* \"#utility.yul\":6357:6358   */\n      0x00\n        /* \"#utility.yul\":6346:6355   */\n      dup4\n        /* \"#utility.yul\":6342:6359   */\n      add\n        /* \"#utility.yul\":6335:6382   */\n      mstore\n        /* \"#utility.yul\":6399:6530   */\n      tag_117\n        /* \"#utility.yul\":6525:6529   */\n      dup2\n        /* \"#utility.yul\":6399:6530   */\n      tag_98\n      jump\t// in\n    tag_117:\n        /* \"#utility.yul\":6391:6530   */\n      swap1\n      pop\n        /* \"#utility.yul\":6289:6537   */\n      swap2\n      swap1\n      pop\n      jump\t// out\n        /* \"#utility.yul\":6543:6712   */\n    tag_94:\n      0x00\n        /* \"#utility.yul\":6661:6667   */\n      dup3\n        /* \"#utility.yul\":6656:6659   */\n      dup3\n        /* \"#utility.yul\":6649:6668   */\n      mstore\n        /* \"#utility.yul\":6701:6705   */\n      0x20\n        /* \"#utility.yul\":6696:6699   */\n      dup3\n        /* \"#utility.yul\":6692:6706   */\n      add\n        /* \"#utility.yul\":6677:6706   */\n      swap1\n      pop\n        /* \"#utility.yul\":6639:6712   */\n      swap3\n      swap2\n      pop\n      pop\n      jump\t// out\n        /* \"#utility.yul\":6718:6814   */\n    tag_90:\n      0x00\n        /* \"#utility.yul\":6784:6808   */\n      tag_120\n        /* \"#utility.yul\":6802:6807   */\n      dup3\n        /* \"#utility.yul\":6784:6808   */\n      tag_121\n      jump\t// in\n    tag_120:\n        /* \"#utility.yul\":6773:6808   */\n      swap1\n      pop\n        /* \"#utility.yul\":6763:6814   */\n      swap2\n      swap1\n      pop\n      jump\t// out\n        /* \"#utility.yul\":6820:6910   */\n    tag_122:\n      0x00\n        /* \"#utility.yul\":6897:6902   */\n      dup2\n        /* \"#utility.yul\":6890:6903   */\n      iszero\n        /* \"#utility.yul\":6883:6904   */\n      iszero\n        /* \"#utility.yul\":6872:6904   */\n      swap1\n      pop\n        /* \"#utility.yul\":6862:6910   */\n      swap2\n      swap1\n      pop\n      jump\t// out\n        /* \"#utility.yul\":6916:7042   */\n    tag_121:\n      0x00\n        /* \"#utility.yul\":6993:7035   */\n      0xffffffffffffffffffffffffffffffffffffffff\n        /* \"#utility.yul\":6986:6991   */\n      dup3\n        /* \"#utility.yul\":6982:7036   */\n      and\n        /* \"#utility.yul\":6971:7036   */\n      swap1\n      pop\n        /* \"#utility.yul\":6961:7042   */\n      swap2\n      swap1\n      pop\n      jump\t// out\n        /* \"#utility.yul\":7048:7125   */\n    tag_104:\n      0x00\n        /* \"#utility.yul\":7114:7119   */\n      dup2\n        /* \"#utility.yul\":7103:7119   */\n      swap1\n      pop\n        /* \"#utility.yul\":7093:7125   */\n      swap2\n      swap1\n      pop\n      jump\t// out\n        /* \"#utility.yul\":7131:7364   */\n    tag_35:\n      0x00\n        /* \"#utility.yul\":7193:7217   */\n      tag_127\n        /* \"#utility.yul\":7211:7216   */\n      dup3\n        /* \"#utility.yul\":7193:7217   */\n      tag_104\n      jump\t// in\n    tag_127:\n        /* \"#utility.yul\":7184:7217   */\n      swap2\n      pop\n        /* \"#utility.yul\":7239:7305   */\n      0xffffffffffffffffffffffffffffffffffffffffffffffffffffffffffffffff\n        /* \"#utility.yul\":7232:7237   */\n      dup3\n        /* \"#utility.yul\":7229:7306   */\n      eq\n        /* \"#utility.yul\":7226:7228   */\n      iszero\n      tag_128\n      jumpi\n        /* \"#utility.yul\":7309:7327   */\n      tag_129\n      tag_130\n      jump\t// in\n    tag_129:\n        /* \"#utility.yul\":7226:7228   */\n    tag_128:\n        /* \"#utility.yul\":7356:7357   */\n      0x01\n        /* \"#utility.yul\":7349:7354   */\n      dup3\n        /* \"#utility.yul\":7345:7358   */\n      add\n        /* \"#utility.yul\":7338:7358   */\n      swap1\n      pop\n        /* \"#utility.yul\":7174:7364   */\n      swap2\n      swap1\n      pop\n      jump\t// out\n        /* \"#utility.yul\":7370:7550   */\n    tag_130:\n        /* \"#utility.yul\":7418:7495   */\n      0x4e487b7100000000000000000000000000000000000000000000000000000000\n        /* \"#utility.yul\":7415:7416   */\n      0x00\n        /* \"#utility.yul\":7408:7496   */\n      mstore\n        /* \"#utility.yul\":7515:7519   */\n      0x11\n        /* \"#utility.yul\":7512:7513   */\n      0x04\n        /* \"#utility.yul\":7505:7520   */\n      mstore\n        /* \"#utility.yul\":7539:7543   */\n      0x24\n        /* \"#utility.yul\":7536:7537   */\n      0x00\n        /* \"#utility.yul\":7529:7544   */\n      revert\n        /* \"#utility.yul\":7556:7678   */\n    tag_50:\n        /* \"#utility.yul\":7629:7653   */\n      tag_133\n        /* \"#utility.yul\":7647:7652   */\n      dup2\n        /* \"#utility.yul\":7629:7653   */\n      tag_90\n      jump\t// in\n    tag_133:\n        /* \"#utility.yul\":7622:7627   */\n      dup2\n        /* \"#utility.yul\":7619:7654   */\n      eq\n        /* \"#utility.yul\":7609:7611   */\n      tag_134\n      jumpi\n        /* \"#utility.yul\":7668:7669   */\n      0x00\n        /* \"#utility.yul\":7665:7666   */\n      dup1\n        /* \"#utility.yul\":7658:7670   */\n      revert\n        /* \"#utility.yul\":7609:7611   */\n    tag_134:\n        /* \"#utility.yul\":7599:7678   */\n      pop\n      jump\t// out\n        /* \"#utility.yul\":7684:7800   */\n    tag_64:\n        /* \"#utility.yul\":7754:7775   */\n      tag_136\n        /* \"#utility.yul\":7769:7774   */\n      dup2\n        /* \"#utility.yul\":7754:7775   */\n      tag_122\n      jump\t// in\n    tag_136:\n        /* \"#utility.yul\":7747:7752   */\n      dup2\n        /* \"#utility.yul\":7744:7776   */\n      eq\n        /* \"#utility.yul\":7734:7736   */\n      tag_137\n      jumpi\n        /* \"#utility.yul\":7790:7791   */\n      0x00\n        /* \"#utility.yul\":7787:7788   */\n      dup1\n        /* \"#utility.yul\":7780:7792   */\n      revert\n        /* \"#utility.yul\":7734:7736   */\n    tag_137:\n        /* \"#utility.yul\":7724:7800   */\n      pop\n      jump\t// out\n        /* \"#utility.yul\":7806:7928   */\n    tag_68:\n        /* \"#utility.yul\":7879:7903   */\n      tag_139\n        /* \"#utility.yul\":7897:7902   */\n      dup2\n        /* \"#utility.yul\":7879:7903   */\n      tag_104\n      jump\t// in\n    tag_139:\n        /* \"#utility.yul\":7872:7877   */\n      dup2\n        /* \"#utility.yul\":7869:7904   */\n      eq\n        /* \"#utility.yul\":7859:7861   */\n      tag_140\n      jumpi\n        /* \"#utility.yul\":7918:7919   */\n      0x00\n        /* \"#utility.yul\":7915:7916   */\n      dup1\n        /* \"#utility.yul\":7908:7920   */\n      revert\n        /* \"#utility.yul\":7859:7861   */\n    tag_140:\n        /* \"#utility.yul\":7849:7928   */\n      pop\n      jump\t// out\n\n    auxdata: 0xa26469706673582212200958c76b538f45d1b1fd9138adeee745eb9582cb8d004f1738329ddfd942fd3264736f6c63430008000033\n}\n",
				"bytecode": {
					"linkReferences": {},
					"object": "608060405234801561001057600080fd5b5061082e806100206000396000f3fe608060405234801561001057600080fd5b50600436106100365760003560e01c8063a00a4ef11461003b578063da3e339714610057575b600080fd5b6100556004803603810190610050919061046c565b610073565b005b610071600480360381019061006c919061041d565b610244565b005b8181905084849050146100bb576040517f08c379a00000000000000000000000000000000000000000000000000000000081526004016100b2906106a2565b60405180910390fd5b600085905060005b8585905081101561023b578173ffffffffffffffffffffffffffffffffffffffff166323b872dd33888885818110610124577f4e487b7100000000000000000000000000000000000000000000000000000000600052603260045260246000fd5b905060200201602081019061013991906103f4565b878786818110610172577f4e487b7100000000000000000000000000000000000000000000000000000000600052603260045260246000fd5b905060200201356040518463ffffffff1660e01b815260040161019793929190610622565b602060405180830381600087803b1580156101b157600080fd5b505af11580156101c5573d6000803e3d6000fd5b505050506040513d601f19601f820116820180604052508101906101e991906104f5565b610228576040517f08c379a000000000000000000000000000000000000000000000000000000000815260040161021f906106c2565b60405180910390fd5b80806102339061073b565b9150506100c3565b50505050505050565b600083905060008173ffffffffffffffffffffffffffffffffffffffff1663095ea7b385856040518363ffffffff1660e01b8152600401610286929190610659565b602060405180830381600087803b1580156102a057600080fd5b505af11580156102b4573d6000803e3d6000fd5b505050506040513d601f19601f820116820180604052508101906102d891906104f5565b90508061031a576040517f08c379a000000000000000000000000000000000000000000000000000000000815260040161031190610682565b60405180910390fd5b5050505050565b600081359050610330816107b3565b92915050565b60008083601f84011261034857600080fd5b8235905067ffffffffffffffff81111561036157600080fd5b60208301915083602082028301111561037957600080fd5b9250929050565b60008083601f84011261039257600080fd5b8235905067ffffffffffffffff8111156103ab57600080fd5b6020830191508360208202830111156103c357600080fd5b9250929050565b6000815190506103d9816107ca565b92915050565b6000813590506103ee816107e1565b92915050565b60006020828403121561040657600080fd5b600061041484828501610321565b91505092915050565b60008060006060848603121561043257600080fd5b600061044086828701610321565b935050602061045186828701610321565b9250506040610462868287016103df565b9150509250925092565b60008060008060006060868803121561048457600080fd5b600061049288828901610321565b955050602086013567ffffffffffffffff8111156104af57600080fd5b6104bb88828901610336565b9450945050604086013567ffffffffffffffff8111156104da57600080fd5b6104e688828901610380565b92509250509295509295909350565b60006020828403121561050757600080fd5b6000610515848285016103ca565b91505092915050565b610527816106f3565b82525050565b600061053a6016836106e2565b91507f546f6b656e20617070726f76616c206661696c65642e000000000000000000006000830152602082019050919050565b600061057a6024836106e2565b91507f526563697069656e747320616e6420616d6f756e747320646f206e6f74206d6160008301527f7463682e000000000000000000000000000000000000000000000000000000006020830152604082019050919050565b60006105e06010836106e2565b91507f5472616e73666572206661696c65642e000000000000000000000000000000006000830152602082019050919050565b61061c81610731565b82525050565b6000606082019050610637600083018661051e565b610644602083018561051e565b6106516040830184610613565b949350505050565b600060408201905061066e600083018561051e565b61067b6020830184610613565b9392505050565b6000602082019050818103600083015261069b8161052d565b9050919050565b600060208201905081810360008301526106bb8161056d565b9050919050565b600060208201905081810360008301526106db816105d3565b9050919050565b600082825260208201905092915050565b60006106fe82610711565b9050919050565b60008115159050919050565b600073ffffffffffffffffffffffffffffffffffffffff82169050919050565b6000819050919050565b600061074682610731565b91507fffffffffffffffffffffffffffffffffffffffffffffffffffffffffffffffff82141561077957610778610784565b5b600182019050919050565b7f4e487b7100000000000000000000000000000000000000000000000000000000600052601160045260246000fd5b6107bc816106f3565b81146107c757600080fd5b50565b6107d381610705565b81146107de57600080fd5b50565b6107ea81610731565b81146107f557600080fd5b5056fea26469706673582212200958c76b538f45d1b1fd9138adeee745eb9582cb8d004f1738329ddfd942fd3264736f6c63430008000033",
					"opcodes": "PUSH1 0x80 PUSH1 0x40 MSTORE CALLVALUE DUP1 ISZERO PUSH2 0x10 JUMPI PUSH1 0x0 DUP1 REVERT JUMPDEST POP PUSH2 0x82E DUP1 PUSH2 0x20 PUSH1 0x0 CODECOPY PUSH1 0x0 RETURN INVALID PUSH1 0x80 PUSH1 0x40 MSTORE CALLVALUE DUP1 ISZERO PUSH2 0x10 JUMPI PUSH1 0x0 DUP1 REVERT JUMPDEST POP PUSH1 0x4 CALLDATASIZE LT PUSH2 0x36 JUMPI PUSH1 0x0 CALLDATALOAD PUSH1 0xE0 SHR DUP1 PUSH4 0xA00A4EF1 EQ PUSH2 0x3B JUMPI DUP1 PUSH4 0xDA3E3397 EQ PUSH2 0x57 JUMPI JUMPDEST PUSH1 0x0 DUP1 REVERT JUMPDEST PUSH2 0x55 PUSH1 0x4 DUP1 CALLDATASIZE SUB DUP2 ADD SWAP1 PUSH2 0x50 SWAP2 SWAP1 PUSH2 0x46C JUMP JUMPDEST PUSH2 0x73 JUMP JUMPDEST STOP JUMPDEST PUSH2 0x71 PUSH1 0x4 DUP1 CALLDATASIZE SUB DUP2 ADD SWAP1 PUSH2 0x6C SWAP2 SWAP1 PUSH2 0x41D JUMP JUMPDEST PUSH2 0x244 JUMP JUMPDEST STOP JUMPDEST DUP2 DUP2 SWAP1 POP DUP5 DUP5 SWAP1 POP EQ PUSH2 0xBB JUMPI PUSH1 0x40 MLOAD PUSH32 0x8C379A000000000000000000000000000000000000000000000000000000000 DUP2 MSTORE PUSH1 0x4 ADD PUSH2 0xB2 SWAP1 PUSH2 0x6A2 JUMP JUMPDEST PUSH1 0x40 MLOAD DUP1 SWAP2 SUB SWAP1 REVERT JUMPDEST PUSH1 0x0 DUP6 SWAP1 POP PUSH1 0x0 JUMPDEST DUP6 DUP6 SWAP1 POP DUP2 LT ISZERO PUSH2 0x23B JUMPI DUP2 PUSH20 0xFFFFFFFFFFFFFFFFFFFFFFFFFFFFFFFFFFFFFFFF AND PUSH4 0x23B872DD CALLER DUP9 DUP9 DUP6 DUP2 DUP2 LT PUSH2 0x124 JUMPI PUSH32 0x4E487B7100000000000000000000000000000000000000000000000000000000 PUSH1 0x0 MSTORE PUSH1 0x32 PUSH1 0x4 MSTORE PUSH1 0x24 PUSH1 0x0 REVERT JUMPDEST SWAP1 POP PUSH1 0x20 MUL ADD PUSH1 0x20 DUP2 ADD SWAP1 PUSH2 0x139 SWAP2 SWAP1 PUSH2 0x3F4 JUMP JUMPDEST DUP8 DUP8 DUP7 DUP2 DUP2 LT PUSH2 0x172 JUMPI PUSH32 0x4E487B7100000000000000000000000000000000000000000000000000000000 PUSH1 0x0 MSTORE PUSH1 0x32 PUSH1 0x4 MSTORE PUSH1 0x24 PUSH1 0x0 REVERT JUMPDEST SWAP1 POP PUSH1 0x20 MUL ADD CALLDATALOAD PUSH1 0x40 MLOAD DUP5 PUSH4 0xFFFFFFFF AND PUSH1 0xE0 SHL DUP2 MSTORE PUSH1 0x4 ADD PUSH2 0x197 SWAP4 SWAP3 SWAP2 SWAP1 PUSH2 0x622 JUMP JUMPDEST PUSH1 0x20 PUSH1 0x40 MLOAD DUP1 DUP4 SUB DUP2 PUSH1 0x0 DUP8 DUP1 EXTCODESIZE ISZERO DUP1 ISZERO PUSH2 0x1B1 JUMPI PUSH1 0x0 DUP1 REVERT JUMPDEST POP GAS CALL ISZERO DUP1 ISZERO PUSH2 0x1C5 JUMPI RETURNDATASIZE PUSH1 0x0 DUP1 RETURNDATACOPY RETURNDATASIZE PUSH1 0x0 REVERT JUMPDEST POP POP POP POP PUSH1 0x40 MLOAD RETURNDATASIZE PUSH1 0x1F NOT PUSH1 0x1F DUP3 ADD AND DUP3 ADD DUP1 PUSH1 0x40 MSTORE POP DUP2 ADD SWAP1 PUSH2 0x1E9 SWAP2 SWAP1 PUSH2 0x4F5 JUMP JUMPDEST PUSH2 0x228 JUMPI PUSH1 0x40 MLOAD PUSH32 0x8C379A000000000000000000000000000000000000000000000000000000000 DUP2 MSTORE PUSH1 0x4 ADD PUSH2 0x21F SWAP1 PUSH2 0x6C2 JUMP JUMPDEST PUSH1 0x40 MLOAD DUP1 SWAP2 SUB SWAP1 REVERT JUMPDEST DUP1 DUP1 PUSH2 0x233 SWAP1 PUSH2 0x73B JUMP JUMPDEST SWAP2 POP POP PUSH2 0xC3 JUMP JUMPDEST POP POP POP POP POP POP POP JUMP JUMPDEST PUSH1 0x0 DUP4 SWAP1 POP PUSH1 0x0 DUP2 PUSH20 0xFFFFFFFFFFFFFFFFFFFFFFFFFFFFFFFFFFFFFFFF AND PUSH4 0x95EA7B3 DUP6 DUP6 PUSH1 0x40 MLOAD DUP4 PUSH4 0xFFFFFFFF AND PUSH1 0xE0 SHL DUP2 MSTORE PUSH1 0x4 ADD PUSH2 0x286 SWAP3 SWAP2 SWAP1 PUSH2 0x659 JUMP JUMPDEST PUSH1 0x20 PUSH1 0x40 MLOAD DUP1 DUP4 SUB DUP2 PUSH1 0x0 DUP8 DUP1 EXTCODESIZE ISZERO DUP1 ISZERO PUSH2 0x2A0 JUMPI PUSH1 0x0 DUP1 REVERT JUMPDEST POP GAS CALL ISZERO DUP1 ISZERO PUSH2 0x2B4 JUMPI RETURNDATASIZE PUSH1 0x0 DUP1 RETURNDATACOPY RETURNDATASIZE PUSH1 0x0 REVERT JUMPDEST POP POP POP POP PUSH1 0x40 MLOAD RETURNDATASIZE PUSH1 0x1F NOT PUSH1 0x1F DUP3 ADD AND DUP3 ADD DUP1 PUSH1 0x40 MSTORE POP DUP2 ADD SWAP1 PUSH2 0x2D8 SWAP2 SWAP1 PUSH2 0x4F5 JUMP JUMPDEST SWAP1 POP DUP1 PUSH2 0x31A JUMPI PUSH1 0x40 MLOAD PUSH32 0x8C379A000000000000000000000000000000000000000000000000000000000 DUP2 MSTORE PUSH1 0x4 ADD PUSH2 0x311 SWAP1 PUSH2 0x682 JUMP JUMPDEST PUSH1 0x40 MLOAD DUP1 SWAP2 SUB SWAP1 REVERT JUMPDEST POP POP POP POP POP JUMP JUMPDEST PUSH1 0x0 DUP2 CALLDATALOAD SWAP1 POP PUSH2 0x330 DUP2 PUSH2 0x7B3 JUMP JUMPDEST SWAP3 SWAP2 POP POP JUMP JUMPDEST PUSH1 0x0 DUP1 DUP4 PUSH1 0x1F DUP5 ADD SLT PUSH2 0x348 JUMPI PUSH1 0x0 DUP1 REVERT JUMPDEST DUP3 CALLDATALOAD SWAP1 POP PUSH8 0xFFFFFFFFFFFFFFFF DUP2 GT ISZERO PUSH2 0x361 JUMPI PUSH1 0x0 DUP1 REVERT JUMPDEST PUSH1 0x20 DUP4 ADD SWAP2 POP DUP4 PUSH1 0x20 DUP3 MUL DUP4 ADD GT ISZERO PUSH2 0x379 JUMPI PUSH1 0x0 DUP1 REVERT JUMPDEST SWAP3 POP SWAP3 SWAP1 POP JUMP JUMPDEST PUSH1 0x0 DUP1 DUP4 PUSH1 0x1F DUP5 ADD SLT PUSH2 0x392 JUMPI PUSH1 0x0 DUP1 REVERT JUMPDEST DUP3 CALLDATALOAD SWAP1 POP PUSH8 0xFFFFFFFFFFFFFFFF DUP2 GT ISZERO PUSH2 0x3AB JUMPI PUSH1 0x0 DUP1 REVERT JUMPDEST PUSH1 0x20 DUP4 ADD SWAP2 POP DUP4 PUSH1 0x20 DUP3 MUL DUP4 ADD GT ISZERO PUSH2 0x3C3 JUMPI PUSH1 0x0 DUP1 REVERT JUMPDEST SWAP3 POP SWAP3 SWAP1 POP JUMP JUMPDEST PUSH1 0x0 DUP2 MLOAD SWAP1 POP PUSH2 0x3D9 DUP2 PUSH2 0x7CA JUMP JUMPDEST SWAP3 SWAP2 POP POP JUMP JUMPDEST PUSH1 0x0 DUP2 CALLDATALOAD SWAP1 POP PUSH2 0x3EE DUP2 PUSH2 0x7E1 JUMP JUMPDEST SWAP3 SWAP2 POP POP JUMP JUMPDEST PUSH1 0x0 PUSH1 0x20 DUP3 DUP5 SUB SLT ISZERO PUSH2 0x406 JUMPI PUSH1 0x0 DUP1 REVERT JUMPDEST PUSH1 0x0 PUSH2 0x414 DUP5 DUP3 DUP6 ADD PUSH2 0x321 JUMP JUMPDEST SWAP2 POP POP SWAP3 SWAP2 POP POP JUMP JUMPDEST PUSH1 0x0 DUP1 PUSH1 0x0 PUSH1 0x60 DUP5 DUP7 SUB SLT ISZERO PUSH2 0x432 JUMPI PUSH1 0x0 DUP1 REVERT JUMPDEST PUSH1 0x0 PUSH2 0x440 DUP7 DUP3 DUP8 ADD PUSH2 0x321 JUMP JUMPDEST SWAP4 POP POP PUSH1 0x20 PUSH2 0x451 DUP7 DUP3 DUP8 ADD PUSH2 0x321 JUMP JUMPDEST SWAP3 POP POP PUSH1 0x40 PUSH2 0x462 DUP7 DUP3 DUP8 ADD PUSH2 0x3DF JUMP JUMPDEST SWAP2 POP POP SWAP3 POP SWAP3 POP SWAP3 JUMP JUMPDEST PUSH1 0x0 DUP1 PUSH1 0x0 DUP1 PUSH1 0x0 PUSH1 0x60 DUP7 DUP9 SUB SLT ISZERO PUSH2 0x484 JUMPI PUSH1 0x0 DUP1 REVERT JUMPDEST PUSH1 0x0 PUSH2 0x492 DUP9 DUP3 DUP10 ADD PUSH2 0x321 JUMP JUMPDEST SWAP6 POP POP PUSH1 0x20 DUP7 ADD CALLDATALOAD PUSH8 0xFFFFFFFFFFFFFFFF DUP2 GT ISZERO PUSH2 0x4AF JUMPI PUSH1 0x0 DUP1 REVERT JUMPDEST PUSH2 0x4BB DUP9 DUP3 DUP10 ADD PUSH2 0x336 JUMP JUMPDEST SWAP5 POP SWAP5 POP POP PUSH1 0x40 DUP7 ADD CALLDATALOAD PUSH8 0xFFFFFFFFFFFFFFFF DUP2 GT ISZERO PUSH2 0x4DA JUMPI PUSH1 0x0 DUP1 REVERT JUMPDEST PUSH2 0x4E6 DUP9 DUP3 DUP10 ADD PUSH2 0x380 JUMP JUMPDEST SWAP3 POP SWAP3 POP POP SWAP3 SWAP6 POP SWAP3 SWAP6 SWAP1 SWAP4 POP JUMP JUMPDEST PUSH1 0x0 PUSH1 0x20 DUP3 DUP5 SUB SLT ISZERO PUSH2 0x507 JUMPI PUSH1 0x0 DUP1 REVERT JUMPDEST PUSH1 0x0 PUSH2 0x515 DUP5 DUP3 DUP6 ADD PUSH2 0x3CA JUMP JUMPDEST SWAP2 POP POP SWAP3 SWAP2 POP POP JUMP JUMPDEST PUSH2 0x527 DUP2 PUSH2 0x6F3 JUMP JUMPDEST DUP3 MSTORE POP POP JUMP JUMPDEST PUSH1 0x0 PUSH2 0x53A PUSH1 0x16 DUP4 PUSH2 0x6E2 JUMP JUMPDEST SWAP2 POP PUSH32 0x546F6B656E20617070726F76616C206661696C65642E00000000000000000000 PUSH1 0x0 DUP4 ADD MSTORE PUSH1 0x20 DUP3 ADD SWAP1 POP SWAP2 SWAP1 POP JUMP JUMPDEST PUSH1 0x0 PUSH2 0x57A PUSH1 0x24 DUP4 PUSH2 0x6E2 JUMP JUMPDEST SWAP2 POP PUSH32 0x526563697069656E747320616E6420616D6F756E747320646F206E6F74206D61 PUSH1 0x0 DUP4 ADD MSTORE PUSH32 0x7463682E00000000000000000000000000000000000000000000000000000000 PUSH1 0x20 DUP4 ADD MSTORE PUSH1 0x40 DUP3 ADD SWAP1 POP SWAP2 SWAP1 POP JUMP JUMPDEST PUSH1 0x0 PUSH2 0x5E0 PUSH1 0x10 DUP4 PUSH2 0x6E2 JUMP JUMPDEST SWAP2 POP PUSH32 0x5472616E73666572206661696C65642E00000000000000000000000000000000 PUSH1 0x0 DUP4 ADD MSTORE PUSH1 0x20 DUP3 ADD SWAP1 POP SWAP2 SWAP1 POP JUMP JUMPDEST PUSH2 0x61C DUP2 PUSH2 0x731 JUMP JUMPDEST DUP3 MSTORE POP POP JUMP JUMPDEST PUSH1 0x0 PUSH1 0x60 DUP3 ADD SWAP1 POP PUSH2 0x637 PUSH1 0x0 DUP4 ADD DUP7 PUSH2 0x51E JUMP JUMPDEST PUSH2 0x644 PUSH1 0x20 DUP4 ADD DUP6 PUSH2 0x51E JUMP JUMPDEST PUSH2 0x651 PUSH1 0x40 DUP4 ADD DUP5 PUSH2 0x613 JUMP JUMPDEST SWAP5 SWAP4 POP POP POP POP JUMP JUMPDEST PUSH1 0x0 PUSH1 0x40 DUP3 ADD SWAP1 POP PUSH2 0x66E PUSH1 0x0 DUP4 ADD DUP6 PUSH2 0x51E JUMP JUMPDEST PUSH2 0x67B PUSH1 0x20 DUP4 ADD DUP5 PUSH2 0x613 JUMP JUMPDEST SWAP4 SWAP3 POP POP POP JUMP JUMPDEST PUSH1 0x0 PUSH1 0x20 DUP3 ADD SWAP1 POP DUP2 DUP2 SUB PUSH1 0x0 DUP4 ADD MSTORE PUSH2 0x69B DUP2 PUSH2 0x52D JUMP JUMPDEST SWAP1 POP SWAP2 SWAP1 POP JUMP JUMPDEST PUSH1 0x0 PUSH1 0x20 DUP3 ADD SWAP1 POP DUP2 DUP2 SUB PUSH1 0x0 DUP4 ADD MSTORE PUSH2 0x6BB DUP2 PUSH2 0x56D JUMP JUMPDEST SWAP1 POP SWAP2 SWAP1 POP JUMP JUMPDEST PUSH1 0x0 PUSH1 0x20 DUP3 ADD SWAP1 POP DUP2 DUP2 SUB PUSH1 0x0 DUP4 ADD MSTORE PUSH2 0x6DB DUP2 PUSH2 0x5D3 JUMP JUMPDEST SWAP1 POP SWAP2 SWAP1 POP JUMP JUMPDEST PUSH1 0x0 DUP3 DUP3 MSTORE PUSH1 0x20 DUP3 ADD SWAP1 POP SWAP3 SWAP2 POP POP JUMP JUMPDEST PUSH1 0x0 PUSH2 0x6FE DUP3 PUSH2 0x711 JUMP JUMPDEST SWAP1 POP SWAP2 SWAP1 POP JUMP JUMPDEST PUSH1 0x0 DUP2 ISZERO ISZERO SWAP1 POP SWAP2 SWAP1 POP JUMP JUMPDEST PUSH1 0x0 PUSH20 0xFFFFFFFFFFFFFFFFFFFFFFFFFFFFFFFFFFFFFFFF DUP3 AND SWAP1 POP SWAP2 SWAP1 POP JUMP JUMPDEST PUSH1 0x0 DUP2 SWAP1 POP SWAP2 SWAP1 POP JUMP JUMPDEST PUSH1 0x0 PUSH2 0x746 DUP3 PUSH2 0x731 JUMP JUMPDEST SWAP2 POP PUSH32 0xFFFFFFFFFFFFFFFFFFFFFFFFFFFFFFFFFFFFFFFFFFFFFFFFFFFFFFFFFFFFFFFF DUP3 EQ ISZERO PUSH2 0x779 JUMPI PUSH2 0x778 PUSH2 0x784 JUMP JUMPDEST JUMPDEST PUSH1 0x1 DUP3 ADD SWAP1 POP SWAP2 SWAP1 POP JUMP JUMPDEST PUSH32 0x4E487B7100000000000000000000000000000000000000000000000000000000 PUSH1 0x0 MSTORE PUSH1 0x11 PUSH1 0x4 MSTORE PUSH1 0x24 PUSH1 0x0 REVERT JUMPDEST PUSH2 0x7BC DUP2 PUSH2 0x6F3 JUMP JUMPDEST DUP2 EQ PUSH2 0x7C7 JUMPI PUSH1 0x0 DUP1 REVERT JUMPDEST POP JUMP JUMPDEST PUSH2 0x7D3 DUP2 PUSH2 0x705 JUMP JUMPDEST DUP2 EQ PUSH2 0x7DE JUMPI PUSH1 0x0 DUP1 REVERT JUMPDEST POP JUMP JUMPDEST PUSH2 0x7EA DUP2 PUSH2 0x731 JUMP JUMPDEST DUP2 EQ PUSH2 0x7F5 JUMPI PUSH1 0x0 DUP1 REVERT JUMPDEST POP JUMP INVALID LOG2 PUSH5 0x6970667358 0x22 SLT KECCAK256 MULMOD PC 0xC7 PUSH12 0x538F45D1B1FD9138ADEEE745 0xEB SWAP6 DUP3 0xCB DUP14 STOP 0x4F OR CODESIZE ORIGIN SWAP14 0xDF 0xD9 TIMESTAMP REVERT ORIGIN PUSH5 0x736F6C6343 STOP ADDMOD STOP STOP CALLER "
				},
				"gasEstimates": {
					"creation": {
						"codeDepositCost": "418800",
						"executionCost": "455",
						"totalCost": "419255"
					},
					"external": {
						"approveToken(address,address,uint256)": "infinite",
						"transferTokenToMultipleAccounts(address,address[],uint256[])": "infinite"
					}
				},
				"methodIdentifiers": {
					"approveToken(address,address,uint256)": "da3e3397",
					"transferTokenToMultipleAccounts(address,address[],uint256[])": "a00a4ef1"
				}
			},
			"storageLayout": {
				"storage": [],
				"types": null
			},
			"userdoc": {
				"kind": "user",
				"methods": {},
				"version": 1
			}
		}
	}
}