{
	"data": {
		"bytecode": {
			"linkReferences": {},
			"object": "608060405234801561000f575f80fd5b506106278061001d5f395ff3fe608060405234801561000f575f80fd5b5060043610610029575f3560e01c8063a00a4ef11461002d575b5f80fd5b610047600480360381019061004291906102d2565b610049565b005b818190508484905014610091576040517f08c379a0000000000000000000000000000000000000000000000000000000008152600401610088906103e3565b60405180910390fd5b5f8590505f5b858590508110156101b1578173ffffffffffffffffffffffffffffffffffffffff166323b872dd338888858181106100d2576100d1610401565b5b90506020020160208101906100e7919061042e565b8787868181106100fa576100f9610401565b5b905060200201356040518463ffffffff1660e01b815260040161011f93929190610480565b6020604051808303815f875af115801561013b573d5f803e3d5ffd5b505050506040513d601f19601f8201168201806040525081019061015f91906104ea565b61019e576040517f08c379a00000000000000000000000000000000000000000000000000000000081526004016101959061055f565b60405180910390fd5b80806101a9906105aa565b915050610097565b50505050505050565b5f80fd5b5f80fd5b5f73ffffffffffffffffffffffffffffffffffffffff82169050919050565b5f6101eb826101c2565b9050919050565b6101fb816101e1565b8114610205575f80fd5b50565b5f81359050610216816101f2565b92915050565b5f80fd5b5f80fd5b5f80fd5b5f8083601f84011261023d5761023c61021c565b5b8235905067ffffffffffffffff81111561025a57610259610220565b5b60208301915083602082028301111561027657610275610224565b5b9250929050565b5f8083601f8401126102925761029161021c565b5b8235905067ffffffffffffffff8111156102af576102ae610220565b5b6020830191508360208202830111156102cb576102ca610224565b5b9250929050565b5f805f805f606086880312156102eb576102ea6101ba565b5b5f6102f888828901610208565b955050602086013567ffffffffffffffff811115610319576103186101be565b5b61032588828901610228565b9450945050604086013567ffffffffffffffff811115610348576103476101be565b5b6103548882890161027d565b92509250509295509295909350565b5f82825260208201905092915050565b7f526563697069656e747320616e6420616d6f756e747320646f206e6f74206d615f8201527f7463682e00000000000000000000000000000000000000000000000000000000602082015250565b5f6103cd602483610363565b91506103d882610373565b604082019050919050565b5f6020820190508181035f8301526103fa816103c1565b9050919050565b7f4e487b71000000000000000000000000000000000000000000000000000000005f52603260045260245ffd5b5f60208284031215610443576104426101ba565b5b5f61045084828501610208565b91505092915050565b610462816101e1565b82525050565b5f819050919050565b61047a81610468565b82525050565b5f6060820190506104935f830186610459565b6104a06020830185610459565b6104ad6040830184610471565b949350505050565b5f8115159050919050565b6104c9816104b5565b81146104d3575f80fd5b50565b5f815190506104e4816104c0565b92915050565b5f602082840312156104ff576104fe6101ba565b5b5f61050c848285016104d6565b91505092915050565b7f5472616e73666572206661696c65642e000000000000000000000000000000005f82015250565b5f610549601083610363565b915061055482610515565b602082019050919050565b5f6020820190508181035f8301526105768161053d565b9050919050565b7f4e487b71000000000000000000000000000000000000000000000000000000005f52601160045260245ffd5b5f6105b482610468565b91507fffffffffffffffffffffffffffffffffffffffffffffffffffffffffffffffff82036105e6576105e561057d565b5b60018201905091905056fea26469706673582212202cb4bb2fc291ed9be99d81f096afdc68c1bb5d7107a0921e4af2d758510a946764736f6c63430008140033",
			"opcodes": "PUSH1 0x80 PUSH1 0x40 MSTORE CALLVALUE DUP1 ISZERO PUSH2 0xF JUMPI PUSH0 DUP1 REVERT JUMPDEST POP PUSH2 0x627 DUP1 PUSH2 0x1D PUSH0 CODECOPY PUSH0 RETURN INVALID PUSH1 0x80 PUSH1 0x40 MSTORE CALLVALUE DUP1 ISZERO PUSH2 0xF JUMPI PUSH0 DUP1 REVERT JUMPDEST POP PUSH1 0x4 CALLDATASIZE LT PUSH2 0x29 JUMPI PUSH0 CALLDATALOAD PUSH1 0xE0 SHR DUP1 PUSH4 0xA00A4EF1 EQ PUSH2 0x2D JUMPI JUMPDEST PUSH0 DUP1 REVERT JUMPDEST PUSH2 0x47 PUSH1 0x4 DUP1 CALLDATASIZE SUB DUP2 ADD SWAP1 PUSH2 0x42 SWAP2 SWAP1 PUSH2 0x2D2 JUMP JUMPDEST PUSH2 0x49 JUMP JUMPDEST STOP JUMPDEST DUP2 DUP2 SWAP1 POP DUP5 DUP5 SWAP1 POP EQ PUSH2 0x91 JUMPI PUSH1 0x40 MLOAD PUSH32 0x8C379A000000000000000000000000000000000000000000000000000000000 DUP2 MSTORE PUSH1 0x4 ADD PUSH2 0x88 SWAP1 PUSH2 0x3E3 JUMP JUMPDEST PUSH1 0x40 MLOAD DUP1 SWAP2 SUB SWAP1 REVERT JUMPDEST PUSH0 DUP6 SWAP1 POP PUSH0 JUMPDEST DUP6 DUP6 SWAP1 POP DUP2 LT ISZERO PUSH2 0x1B1 JUMPI DUP2 PUSH20 0xFFFFFFFFFFFFFFFFFFFFFFFFFFFFFFFFFFFFFFFF AND PUSH4 0x23B872DD CALLER DUP9 DUP9 DUP6 DUP2 DUP2 LT PUSH2 0xD2 JUMPI PUSH2 0xD1 PUSH2 0x401 JUMP JUMPDEST JUMPDEST SWAP1 POP PUSH1 0x20 MUL ADD PUSH1 0x20 DUP2 ADD SWAP1 PUSH2 0xE7 SWAP2 SWAP1 PUSH2 0x42E JUMP JUMPDEST DUP8 DUP8 DUP7 DUP2 DUP2 LT PUSH2 0xFA JUMPI PUSH2 0xF9 PUSH2 0x401 JUMP JUMPDEST JUMPDEST SWAP1 POP PUSH1 0x20 MUL ADD CALLDATALOAD PUSH1 0x40 MLOAD DUP5 PUSH4 0xFFFFFFFF AND PUSH1 0xE0 SHL DUP2 MSTORE PUSH1 0x4 ADD PUSH2 0x11F SWAP4 SWAP3 SWAP2 SWAP1 PUSH2 0x480 JUMP JUMPDEST PUSH1 0x20 PUSH1 0x40 MLOAD DUP1 DUP4 SUB DUP2 PUSH0 DUP8 GAS CALL ISZERO DUP1 ISZERO PUSH2 0x13B JUMPI RETURNDATASIZE PUSH0 DUP1 RETURNDATACOPY RETURNDATASIZE PUSH0 REVERT JUMPDEST POP POP POP POP PUSH1 0x40 MLOAD RETURNDATASIZE PUSH1 0x1F NOT PUSH1 0x1F DUP3 ADD AND DUP3 ADD DUP1 PUSH1 0x40 MSTORE POP DUP2 ADD SWAP1 PUSH2 0x15F SWAP2 SWAP1 PUSH2 0x4EA JUMP JUMPDEST PUSH2 0x19E JUMPI PUSH1 0x40 MLOAD PUSH32 0x8C379A000000000000000000000000000000000000000000000000000000000 DUP2 MSTORE PUSH1 0x4 ADD PUSH2 0x195 SWAP1 PUSH2 0x55F JUMP JUMPDEST PUSH1 0x40 MLOAD DUP1 SWAP2 SUB SWAP1 REVERT JUMPDEST DUP1 DUP1 PUSH2 0x1A9 SWAP1 PUSH2 0x5AA JUMP JUMPDEST SWAP2 POP POP PUSH2 0x97 JUMP JUMPDEST POP POP POP POP POP POP POP JUMP JUMPDEST PUSH0 DUP1 REVERT JUMPDEST PUSH0 DUP1 REVERT JUMPDEST PUSH0 PUSH20 0xFFFFFFFFFFFFFFFFFFFFFFFFFFFFFFFFFFFFFFFF DUP3 AND SWAP1 POP SWAP2 SWAP1 POP JUMP JUMPDEST PUSH0 PUSH2 0x1EB DUP3 PUSH2 0x1C2 JUMP JUMPDEST SWAP1 POP SWAP2 SWAP1 POP JUMP JUMPDEST PUSH2 0x1FB DUP2 PUSH2 0x1E1 JUMP JUMPDEST DUP2 EQ PUSH2 0x205 JUMPI PUSH0 DUP1 REVERT JUMPDEST POP JUMP JUMPDEST PUSH0 DUP2 CALLDATALOAD SWAP1 POP PUSH2 0x216 DUP2 PUSH2 0x1F2 JUMP JUMPDEST SWAP3 SWAP2 POP POP JUMP JUMPDEST PUSH0 DUP1 REVERT JUMPDEST PUSH0 DUP1 REVERT JUMPDEST PUSH0 DUP1 REVERT JUMPDEST PUSH0 DUP1 DUP4 PUSH1 0x1F DUP5 ADD SLT PUSH2 0x23D JUMPI PUSH2 0x23C PUSH2 0x21C JUMP JUMPDEST JUMPDEST DUP3 CALLDATALOAD SWAP1 POP PUSH8 0xFFFFFFFFFFFFFFFF DUP2 GT ISZERO PUSH2 0x25A JUMPI PUSH2 0x259 PUSH2 0x220 JUMP JUMPDEST JUMPDEST PUSH1 0x20 DUP4 ADD SWAP2 POP DUP4 PUSH1 0x20 DUP3 MUL DUP4 ADD GT ISZERO PUSH2 0x276 JUMPI PUSH2 0x275 PUSH2 0x224 JUMP JUMPDEST JUMPDEST SWAP3 POP SWAP3 SWAP1 POP JUMP JUMPDEST PUSH0 DUP1 DUP4 PUSH1 0x1F DUP5 ADD SLT PUSH2 0x292 JUMPI PUSH2 0x291 PUSH2 0x21C JUMP JUMPDEST JUMPDEST DUP3 CALLDATALOAD SWAP1 POP PUSH8 0xFFFFFFFFFFFFFFFF DUP2 GT ISZERO PUSH2 0x2AF JUMPI PUSH2 0x2AE PUSH2 0x220 JUMP JUMPDEST JUMPDEST PUSH1 0x20 DUP4 ADD SWAP2 POP DUP4 PUSH1 0x20 DUP3 MUL DUP4 ADD GT ISZERO PUSH2 0x2CB JUMPI PUSH2 0x2CA PUSH2 0x224 JUMP JUMPDEST JUMPDEST SWAP3 POP SWAP3 SWAP1 POP JUMP JUMPDEST PUSH0 DUP1 PUSH0 DUP1 PUSH0 PUSH1 0x60 DUP7 DUP9 SUB SLT ISZERO PUSH2 0x2EB JUMPI PUSH2 0x2EA PUSH2 0x1BA JUMP JUMPDEST JUMPDEST PUSH0 PUSH2 0x2F8 DUP9 DUP3 DUP10 ADD PUSH2 0x208 JUMP JUMPDEST SWAP6 POP POP PUSH1 0x20 DUP7 ADD CALLDATALOAD PUSH8 0xFFFFFFFFFFFFFFFF DUP2 GT ISZERO PUSH2 0x319 JUMPI PUSH2 0x318 PUSH2 0x1BE JUMP JUMPDEST JUMPDEST PUSH2 0x325 DUP9 DUP3 DUP10 ADD PUSH2 0x228 JUMP JUMPDEST SWAP5 POP SWAP5 POP POP PUSH1 0x40 DUP7 ADD CALLDATALOAD PUSH8 0xFFFFFFFFFFFFFFFF DUP2 GT ISZERO PUSH2 0x348 JUMPI PUSH2 0x347 PUSH2 0x1BE JUMP JUMPDEST JUMPDEST PUSH2 0x354 DUP9 DUP3 DUP10 ADD PUSH2 0x27D JUMP JUMPDEST SWAP3 POP SWAP3 POP POP SWAP3 SWAP6 POP SWAP3 SWAP6 SWAP1 SWAP4 POP JUMP JUMPDEST PUSH0 DUP3 DUP3 MSTORE PUSH1 0x20 DUP3 ADD SWAP1 POP SWAP3 SWAP2 POP POP JUMP JUMPDEST PUSH32 0x526563697069656E747320616E6420616D6F756E747320646F206E6F74206D61 PUSH0 DUP3 ADD MSTORE PUSH32 0x7463682E00000000000000000000000000000000000000000000000000000000 PUSH1 0x20 DUP3 ADD MSTORE POP JUMP JUMPDEST PUSH0 PUSH2 0x3CD PUSH1 0x24 DUP4 PUSH2 0x363 JUMP JUMPDEST SWAP2 POP PUSH2 0x3D8 DUP3 PUSH2 0x373 JUMP JUMPDEST PUSH1 0x40 DUP3 ADD SWAP1 POP SWAP2 SWAP1 POP JUMP JUMPDEST PUSH0 PUSH1 0x20 DUP3 ADD SWAP1 POP DUP2 DUP2 SUB PUSH0 DUP4 ADD MSTORE PUSH2 0x3FA DUP2 PUSH2 0x3C1 JUMP JUMPDEST SWAP1 POP SWAP2 SWAP1 POP JUMP JUMPDEST PUSH32 0x4E487B7100000000000000000000000000000000000000000000000000000000 PUSH0 MSTORE PUSH1 0x32 PUSH1 0x4 MSTORE PUSH1 0x24 PUSH0 REVERT JUMPDEST PUSH0 PUSH1 0x20 DUP3 DUP5 SUB SLT ISZERO PUSH2 0x443 JUMPI PUSH2 0x442 PUSH2 0x1BA JUMP JUMPDEST JUMPDEST PUSH0 PUSH2 0x450 DUP5 DUP3 DUP6 ADD PUSH2 0x208 JUMP JUMPDEST SWAP2 POP POP SWAP3 SWAP2 POP POP JUMP JUMPDEST PUSH2 0x462 DUP2 PUSH2 0x1E1 JUMP JUMPDEST DUP3 MSTORE POP POP JUMP JUMPDEST PUSH0 DUP2 SWAP1 POP SWAP2 SWAP1 POP JUMP JUMPDEST PUSH2 0x47A DUP2 PUSH2 0x468 JUMP JUMPDEST DUP3 MSTORE POP POP JUMP JUMPDEST PUSH0 PUSH1 0x60 DUP3 ADD SWAP1 POP PUSH2 0x493 PUSH0 DUP4 ADD DUP7 PUSH2 0x459 JUMP JUMPDEST PUSH2 0x4A0 PUSH1 0x20 DUP4 ADD DUP6 PUSH2 0x459 JUMP JUMPDEST PUSH2 0x4AD PUSH1 0x40 DUP4 ADD DUP5 PUSH2 0x471 JUMP JUMPDEST SWAP5 SWAP4 POP POP POP POP JUMP JUMPDEST PUSH0 DUP2 ISZERO ISZERO SWAP1 POP SWAP2 SWAP1 POP JUMP JUMPDEST PUSH2 0x4C9 DUP2 PUSH2 0x4B5 JUMP JUMPDEST DUP2 EQ PUSH2 0x4D3 JUMPI PUSH0 DUP1 REVERT JUMPDEST POP JUMP JUMPDEST PUSH0 DUP2 MLOAD SWAP1 POP PUSH2 0x4E4 DUP2 PUSH2 0x4C0 JUMP JUMPDEST SWAP3 SWAP2 POP POP JUMP JUMPDEST PUSH0 PUSH1 0x20 DUP3 DUP5 SUB SLT ISZERO PUSH2 0x4FF JUMPI PUSH2 0x4FE PUSH2 0x1BA JUMP JUMPDEST JUMPDEST PUSH0 PUSH2 0x50C DUP5 DUP3 DUP6 ADD PUSH2 0x4D6 JUMP JUMPDEST SWAP2 POP POP SWAP3 SWAP2 POP POP JUMP JUMPDEST PUSH32 0x5472616E73666572206661696C65642E00000000000000000000000000000000 PUSH0 DUP3 ADD MSTORE POP JUMP JUMPDEST PUSH0 PUSH2 0x549 PUSH1 0x10 DUP4 PUSH2 0x363 JUMP JUMPDEST SWAP2 POP PUSH2 0x554 DUP3 PUSH2 0x515 JUMP JUMPDEST PUSH1 0x20 DUP3 ADD SWAP1 POP SWAP2 SWAP1 POP JUMP JUMPDEST PUSH0 PUSH1 0x20 DUP3 ADD SWAP1 POP DUP2 DUP2 SUB PUSH0 DUP4 ADD MSTORE PUSH2 0x576 DUP2 PUSH2 0x53D JUMP JUMPDEST SWAP1 POP SWAP2 SWAP1 POP JUMP JUMPDEST PUSH32 0x4E487B7100000000000000000000000000000000000000000000000000000000 PUSH0 MSTORE PUSH1 0x11 PUSH1 0x4 MSTORE PUSH1 0x24 PUSH0 REVERT JUMPDEST PUSH0 PUSH2 0x5B4 DUP3 PUSH2 0x468 JUMP JUMPDEST SWAP2 POP PUSH32 0xFFFFFFFFFFFFFFFFFFFFFFFFFFFFFFFFFFFFFFFFFFFFFFFFFFFFFFFFFFFFFFFF DUP3 SUB PUSH2 0x5E6 JUMPI PUSH2 0x5E5 PUSH2 0x57D JUMP JUMPDEST JUMPDEST PUSH1 0x1 DUP3 ADD SWAP1 POP SWAP2 SWAP1 POP JUMP INVALID LOG2 PUSH5 0x6970667358 0x22 SLT KECCAK256 0x2C 0xB4 0xBB 0x2F 0xC2 SWAP2 0xED SWAP12 0xE9 SWAP14 DUP2 CREATE SWAP7 0xAF 0xDC PUSH9 0xC1BB5D7107A0921E4A CALLCODE 0xD7 PC MLOAD EXP SWAP5 PUSH8 0x64736F6C63430008 EQ STOP CALLER "
		},
		"gasEstimates": {
			"creation": {
				"codeDepositCost": "315000",
				"executionCost": "353",
				"totalCost": "315353"
			},
			"external": {
				"transferTokenToMultipleAccounts(address,address[],uint256[])": "infinite"
			}
		},
		"methodIdentifiers": {
			"transferTokenToMultipleAccounts(address,address[],uint256[])": "a00a4ef1"
		}
	},
	"abi": [
		{
			"inputs": [
				{
					"internalType": "address",
					"name": "tokenAddress",
					"type": "address"
				},
				{
					"internalType": "address[]",
					"name": "recipients",
					"type": "address[]"
				},
				{
					"internalType": "uint256[]",
					"name": "amounts",
					"type": "uint256[]"
				}
			],
			"name": "transferTokenToMultipleAccounts",
			"outputs": [],
			"stateMutability": "nonpayable",
			"type": "function"
		}
	]
}